{"abi":[{"type":"constructor","inputs":[{"name":"_kredioPASMarket","type":"address","internalType":"address"},{"name":"_kredioLending","type":"address","internalType":"address"},{"name":"_kredioSwap","type":"address","internalType":"address"},{"name":"_mockUSDC","type":"address","internalType":"address"}],"stateMutability":"nonpayable"},{"type":"receive","stateMutability":"payable"},{"type":"function","name":"BORROW","inputs":[],"outputs":[{"name":"","type":"uint8","internalType":"uint8"}],"stateMutability":"view"},{"type":"function","name":"DEPOSIT_COLLATERAL","inputs":[],"outputs":[{"name":"","type":"uint8","internalType":"uint8"}],"stateMutability":"view"},{"type":"function","name":"DEPOSIT_LEND","inputs":[],"outputs":[{"name":"","type":"uint8","internalType":"uint8"}],"stateMutability":"view"},{"type":"function","name":"FULL_EXIT","inputs":[],"outputs":[{"name":"","type":"uint8","internalType":"uint8"}],"stateMutability":"view"},{"type":"function","name":"REPAY","inputs":[],"outputs":[{"name":"","type":"uint8","internalType":"uint8"}],"stateMutability":"view"},{"type":"function","name":"SWAP_AND_BORROW_COLLATERAL","inputs":[],"outputs":[{"name":"","type":"uint8","internalType":"uint8"}],"stateMutability":"view"},{"type":"function","name":"SWAP_AND_LEND","inputs":[],"outputs":[{"name":"","type":"uint8","internalType":"uint8"}],"stateMutability":"view"},{"type":"function","name":"WITHDRAW_COLLATERAL","inputs":[],"outputs":[{"name":"","type":"uint8","internalType":"uint8"}],"stateMutability":"view"},{"type":"function","name":"acknowledgeExecution","inputs":[{"name":"intentId","type":"bytes32","internalType":"bytes32"},{"name":"success","type":"bool","internalType":"bool"},{"name":"resultCode","type":"bytes4","internalType":"bytes4"}],"outputs":[],"stateMutability":"nonpayable"},{"type":"function","name":"authorisedParachains","inputs":[{"name":"","type":"uint32","internalType":"uint32"}],"outputs":[{"name":"","type":"bool","internalType":"bool"}],"stateMutability":"view"},{"type":"function","name":"decodeAndValidate","inputs":[{"name":"intentType","type":"uint8","internalType":"uint8"},{"name":"intentData","type":"bytes","internalType":"bytes"}],"outputs":[{"name":"valid","type":"bool","internalType":"bool"},{"name":"reason","type":"string","internalType":"string"}],"stateMutability":"pure"},{"type":"function","name":"estimateIntent","inputs":[{"name":"user","type":"address","internalType":"address"},{"name":"intentType","type":"uint8","internalType":"uint8"},{"name":"intentData","type":"bytes","internalType":"bytes"}],"outputs":[{"name":"feasible","type":"bool","internalType":"bool"},{"name":"expectedOut","type":"uint256","internalType":"uint256"},{"name":"reason","type":"string","internalType":"string"}],"stateMutability":"view"},{"type":"function","name":"getSettlementHistory","inputs":[{"name":"user","type":"address","internalType":"address"},{"name":"offset","type":"uint256","internalType":"uint256"},{"name":"limit","type":"uint256","internalType":"uint256"}],"outputs":[{"name":"","type":"tuple[]","internalType":"struct KredioXCMSettler.Settlement[]","components":[{"name":"user","type":"address","internalType":"address"},{"name":"intentType","type":"uint8","internalType":"uint8"},{"name":"amountIn","type":"uint256","internalType":"uint256"},{"name":"amountOut","type":"uint256","internalType":"uint256"},{"name":"sourceParachain","type":"uint32","internalType":"uint32"},{"name":"executedAt","type":"uint256","internalType":"uint256"},{"name":"success","type":"bool","internalType":"bool"},{"name":"failureReason","type":"bytes","internalType":"bytes"}]}],"stateMutability":"view"},{"type":"function","name":"intentNonce","inputs":[{"name":"","type":"address","internalType":"address"}],"outputs":[{"name":"","type":"uint64","internalType":"uint64"}],"stateMutability":"view"},{"type":"function","name":"intentPaused","inputs":[{"name":"","type":"uint8","internalType":"uint8"}],"outputs":[{"name":"","type":"bool","internalType":"bool"}],"stateMutability":"view"},{"type":"function","name":"kredioLending","inputs":[],"outputs":[{"name":"","type":"address","internalType":"address"}],"stateMutability":"view"},{"type":"function","name":"kredioPASMarket","inputs":[],"outputs":[{"name":"","type":"address","internalType":"address"}],"stateMutability":"view"},{"type":"function","name":"kredioSwap","inputs":[],"outputs":[{"name":"","type":"address","internalType":"address"}],"stateMutability":"view"},{"type":"function","name":"mockUSDC","inputs":[],"outputs":[{"name":"","type":"address","internalType":"address"}],"stateMutability":"view"},{"type":"function","name":"owner","inputs":[],"outputs":[{"name":"","type":"address","internalType":"address"}],"stateMutability":"view"},{"type":"function","name":"pauseIntent","inputs":[{"name":"intentType","type":"uint8","internalType":"uint8"},{"name":"status","type":"bool","internalType":"bool"}],"outputs":[],"stateMutability":"nonpayable"},{"type":"function","name":"paused","inputs":[],"outputs":[{"name":"","type":"bool","internalType":"bool"}],"stateMutability":"view"},{"type":"function","name":"recordEthBridgeInitiated","inputs":[{"name":"bridgeId","type":"bytes32","internalType":"bytes32"},{"name":"ethRecipient","type":"address","internalType":"address"},{"name":"amount","type":"uint256","internalType":"uint256"},{"name":"bridgeTransactionHash","type":"bytes32","internalType":"bytes32"}],"outputs":[],"stateMutability":"nonpayable"},{"type":"function","name":"recordMessageDispatched","inputs":[{"name":"intentId","type":"bytes32","internalType":"bytes32"},{"name":"bridgeType","type":"uint8","internalType":"uint8"},{"name":"destinationId","type":"uint32","internalType":"uint32"},{"name":"messageHash","type":"bytes32","internalType":"bytes32"},{"name":"estimatedDeliveryBlocks","type":"uint64","internalType":"uint64"}],"outputs":[],"stateMutability":"nonpayable"},{"type":"function","name":"recoverStuckPAS","inputs":[],"outputs":[],"stateMutability":"nonpayable"},{"type":"function","name":"recoverStuckTokens","inputs":[{"name":"token","type":"address","internalType":"address"},{"name":"amount","type":"uint256","internalType":"uint256"}],"outputs":[],"stateMutability":"nonpayable"},{"type":"function","name":"setAuthorisedParachain","inputs":[{"name":"parachainId","type":"uint32","internalType":"uint32"},{"name":"status","type":"bool","internalType":"bool"}],"outputs":[],"stateMutability":"nonpayable"},{"type":"function","name":"setPaused","inputs":[{"name":"status","type":"bool","internalType":"bool"}],"outputs":[],"stateMutability":"nonpayable"},{"type":"function","name":"settleIntent","inputs":[{"name":"originAddress","type":"address","internalType":"address"},{"name":"intentType","type":"uint8","internalType":"uint8"},{"name":"intentData","type":"bytes","internalType":"bytes"},{"name":"sourceParachain","type":"uint32","internalType":"uint32"},{"name":"nonce","type":"uint64","internalType":"uint64"}],"outputs":[],"stateMutability":"payable"},{"type":"function","name":"settlementCount","inputs":[{"name":"","type":"address","internalType":"address"}],"outputs":[{"name":"","type":"uint256","internalType":"uint256"}],"stateMutability":"view"},{"type":"function","name":"updateProtocolAddresses","inputs":[{"name":"pasMarket","type":"address","internalType":"address"},{"name":"lending","type":"address","internalType":"address"},{"name":"swap","type":"address","internalType":"address"},{"name":"usdc","type":"address","internalType":"address"}],"outputs":[],"stateMutability":"nonpayable"},{"type":"event","name":"ContractPaused","inputs":[{"name":"status","type":"bool","indexed":false,"internalType":"bool"}],"anonymous":false},{"type":"event","name":"EthBridgeInitiated","inputs":[{"name":"bridgeId","type":"bytes32","indexed":true,"internalType":"bytes32"},{"name":"ethRecipient","type":"address","indexed":true,"internalType":"address"},{"name":"amount","type":"uint256","indexed":false,"internalType":"uint256"},{"name":"bridgeTransactionHash","type":"bytes32","indexed":false,"internalType":"bytes32"},{"name":"initiatedBlock","type":"uint64","indexed":false,"internalType":"uint64"}],"anonymous":false},{"type":"event","name":"ExecutionAcknowledged","inputs":[{"name":"intentId","type":"bytes32","indexed":true,"internalType":"bytes32"},{"name":"success","type":"bool","indexed":false,"internalType":"bool"},{"name":"resultCode","type":"bytes4","indexed":false,"internalType":"bytes4"},{"name":"acknowledgedBlock","type":"uint64","indexed":false,"internalType":"uint64"}],"anonymous":false},{"type":"event","name":"IntentAuditLog","inputs":[{"name":"intentId","type":"bytes32","indexed":true,"internalType":"bytes32"},{"name":"sourceParaId","type":"uint32","indexed":true,"internalType":"uint32"},{"name":"sender","type":"address","indexed":true,"internalType":"address"},{"name":"intentType","type":"uint8","indexed":false,"internalType":"uint8"},{"name":"amount","type":"uint256","indexed":false,"internalType":"uint256"},{"name":"receivedBlock","type":"uint64","indexed":false,"internalType":"uint64"}],"anonymous":false},{"type":"event","name":"IntentExecuted","inputs":[{"name":"user","type":"address","indexed":true,"internalType":"address"},{"name":"intentType","type":"uint8","indexed":true,"internalType":"uint8"},{"name":"amountIn","type":"uint256","indexed":false,"internalType":"uint256"},{"name":"amountOut","type":"uint256","indexed":false,"internalType":"uint256"},{"name":"success","type":"bool","indexed":false,"internalType":"bool"}],"anonymous":false},{"type":"event","name":"IntentFailed","inputs":[{"name":"user","type":"address","indexed":true,"internalType":"address"},{"name":"intentType","type":"uint8","indexed":true,"internalType":"uint8"},{"name":"reason","type":"bytes","indexed":false,"internalType":"bytes"}],"anonymous":false},{"type":"event","name":"IntentPaused","inputs":[{"name":"intentType","type":"uint8","indexed":false,"internalType":"uint8"},{"name":"status","type":"bool","indexed":false,"internalType":"bool"}],"anonymous":false},{"type":"event","name":"IntentReceived","inputs":[{"name":"user","type":"address","indexed":true,"internalType":"address"},{"name":"intentType","type":"uint8","indexed":true,"internalType":"uint8"},{"name":"sourceParachain","type":"uint32","indexed":false,"internalType":"uint32"},{"name":"amountIn","type":"uint256","indexed":false,"internalType":"uint256"},{"name":"nonce","type":"uint64","indexed":false,"internalType":"uint64"}],"anonymous":false},{"type":"event","name":"MessageDispatched","inputs":[{"name":"intentId","type":"bytes32","indexed":true,"internalType":"bytes32"},{"name":"bridgeType","type":"uint8","indexed":false,"internalType":"uint8"},{"name":"destinationId","type":"uint32","indexed":false,"internalType":"uint32"},{"name":"messageHash","type":"bytes32","indexed":false,"internalType":"bytes32"},{"name":"dispatchedBlock","type":"uint64","indexed":false,"internalType":"uint64"},{"name":"estimatedDeliveryBlocks","type":"uint64","indexed":false,"internalType":"uint64"}],"anonymous":false},{"type":"event","name":"ParachainAuthorised","inputs":[{"name":"parachainId","type":"uint32","indexed":false,"internalType":"uint32"},{"name":"status","type":"bool","indexed":false,"internalType":"bool"}],"anonymous":false},{"type":"error","name":"ReentrancyGuardReentrantCall","inputs":[]}],"bytecode":{"object":"0x6080346200016857601f62003a3838819003918201601f19168301916001600160401b038311848410176200016c5780849260809460405283398101031262000168576200004d8162000180565b6200005b6020830162000180565b6200007760606200006f6040860162000180565b940162000180565b60017f9b779b17422d0df92223018b32b4d1fa46e071723d6817e2486d003becc55f00556001600160a01b0392831693909190841515806200015c575b8062000150575b8062000144575b15620001135783809260018060a01b03199633885f5416175f558760015416176001551685600254161760025516836003541617600355169060045416176004556040516138a29081620001968239f35b60405162461bcd60e51b81526020600482015260096024820152683d32b9379030b2323960b91b6044820152606490fd5b508383161515620000c2565b508381161515620000bb565b508382161515620000b4565b5f80fd5b634e487b7160e01b5f52604160045260245ffd5b51906001600160a01b0382168203620001685756fe6080604052600436101561001a575b3615610018575f80fd5b005b60e05f3560e01c90816315999a4a1461125057816316c38b3c146111e25781631971daa7146111aa57816322d4a99f14610a645781632f62fe3414610a2d578163309bb82514610a125781634241bb66146109d8578163476554a2146109bd578163481045d7146108d25750806349d83809146108075780635629fb0c146107ec5780635c975abb146107ca578063634a23201461078957806363ac44821461076e578063714ea1331461070d578063721672b2146106f257806376d1e9bf146106ca57806378f0cc14146106a257806380d81b731461062b57806380f7c3c2146105a45780638500aca9146105895780638ce4c0e9146105615780638da5cb5b1461053a5780638fca59bc146104bd57806396dc33f3146104a2578063b85a0b7914610405578063c596f3fe146102f9578063ce5205aa1461024d578063d08266af146101be578063ee467678146101965763f3164e230361000e5734610192575f36600319011261019257602060405160018152f35b5f80fd5b34610192575f366003190112610192576004546040516001600160a01b039091168152602090f35b34610192576040366003190112610192577f3654b42f8ae883310bb3d17bd536480e3efef37fe95258afaebf5079a939fb0260406101fa611355565b63ffffffff6102076112f9565b9161021c60018060a01b035f541633146113bc565b1690815f52600560205261023e81845f209060ff801983541691151516179055565b825191825215156020820152a1005b34610192575f366003190112610192575f546001600160a01b03166102733382146113bc565b479081156102cb575f80809381935af161028b6122c0565b501561029357005b60405162461bcd60e51b815260206004820152601060248201526f141054c81c9958dbdd995c8819985a5b60821b6044820152606490fd5b60405162461bcd60e51b81526020600482015260066024820152656e6f2050415360d01b6044820152606490fd5b34610192576040366003190112610192575f60206103726103186112e3565b83546001600160a01b03908116916103313384146113bc565b169061033e821515611761565b60405163a9059cbb60e01b81526001600160a01b039091166004820152602480359082015293849283919082906044820190565b03925af19081156103fa575f916103c0575b501561038c57005b60405162461bcd60e51b815260206004820152600c60248201526b1c9958dbdd995c8819985a5b60a21b6044820152606490fd5b90506020813d6020116103f2575b816103db60209383611474565b81010312610192576103ec90611a00565b81610384565b3d91506103ce565b6040513d5f823e3d90fd5b346101925760a03660031901126101925761041e611308565b60443563ffffffff811680910361019257610437611368565b61044b60018060a01b035f541633146113bc565b6001600160401b039160ff604051941684526020840152606435604084015281431660608401521660808201527f7d8c304869fdb630ede8c225f9324c502d2e4a42523a44554ce5c25c17c9b6f160a060043592a2005b34610192575f36600319011261019257602060405160088152f35b34610192576040366003190112610192577fc429b0a57fc650595776fad32b36e22336a08aa1fdc86a1867d5ec52b95ef4f160406104f9611318565b60ff6105036112f9565b9161051860018060a01b035f541633146113bc565b1690815f52600960205261023e81845f209060ff801983541691151516179055565b34610192575f366003190112610192575f546040516001600160a01b039091168152602090f35b34610192575f366003190112610192576002546040516001600160a01b039091168152602090f35b34610192575f36600319011261019257602060405160028152f35b34610192576060366003190112610192576105bd6112f9565b60443563ffffffff60e01b8116809103610192576105e560018060a01b035f541633146113bc565b604051911515825260208201526001600160401b03431660408201527f5eebdd6fe4939643d1ddf55e9fd67a2cb9a613a3ca6bd9234294f51f665f6a68606060043592a2005b34610192576060366003190112610192576106446112e3565b61064c611308565b604435906001600160401b0382116101925761069e9261067361067b933690600401611328565b929091611ab8565b60409391935193849315158452602084015260606040840152606083019061137e565b0390f35b34610192575f366003190112610192576003546040516001600160a01b039091168152602090f35b34610192575f366003190112610192576001546040516001600160a01b039091168152602090f35b34610192575f36600319011261019257602060405160038152f35b3461019257604036600319011261019257610726611318565b602435906001600160401b0382116101925761074961074f923690600401611328565b9161184c565b9061069e6040519283921515835260406020840152604083019061137e565b34610192575f36600319011261019257602060405160058152f35b34610192576020366003190112610192576001600160a01b036107aa6112e3565b165f52600660205260206001600160401b0360405f205416604051908152f35b34610192575f36600319011261019257602060ff600a54166040519015158152f35b34610192575f36600319011261019257602060405160048152f35b34610192576080366003190112610192576108206112e3565b6108286112cd565b6044356001600160a01b0381811691829003610192576064359381851680950361019257819061085c825f541633146113bc565b1692831515806108c7575b806108be575b806108b5575b61087c90611761565b6bffffffffffffffffffffffff60a01b938460015416176001551682600254161760025581600354161760035560045416176004555f80f35b50841515610873565b5082151561086d565b508181161515610867565b346101925760608060031936011261019257906108fd6108f06112e3565b604435906024359061153f565b604051916020808401908085528351809252604085018160408460051b8801019501935f975b8489106109305787870388f35b90919293949584806109ab600193603f198c82030188528a518761010091878060a01b03815116845260ff868201511686850152604081015160408501528881015189850152608063ffffffff81830151169085015260a0808201519085015260c0808201511515908501520151918189820152019061137e565b98019401980197919094939294610923565b34610192575f36600319011261019257602060405160078152f35b346101925760203660031901126101925763ffffffff6109f6611355565b165f526005602052602060ff60405f2054166040519015158152f35b34610192575f36600319011261019257602060405160068152f35b346101925760203660031901126101925760ff610a48611318565b165f526009602052602060ff60405f2054166040519015158152f35b60a036600319011261019257610a786112e3565b610a80611308565b6044356001600160401b03811161019257610a9f903690600401611328565b91906064359263ffffffff8416840361019257610aba611368565b9160027f9b779b17422d0df92223018b32b4d1fa46e071723d6817e2486d003becc55f0054146111985760027f9b779b17422d0df92223018b32b4d1fa46e071723d6817e2486d003becc55f005560ff600a54166111625763ffffffff85165f52600560205260ff60405f2054161561111d5760ff84165f52600960205260ff60405f2054166110e3576001600160a01b038616156110b05760018060a01b0386165f52600660205260016001600160401b0360405f205416016001600160401b038111610f81576001600160401b03166001600160401b0384160361107b5760018060a01b0386165f52600660205260405f206001600160401b0384166001600160401b03198254161790556040519263ffffffff8616602085015260018060a01b038716604085015243606085015260ff85166080850152608084528360a08101106001600160401b0360a0860111176110545760a0840160405283516020850120610cdd94610c2c85856122fe565b60ff881660a083015260c08201526001600160401b03431660e082015260018060a01b038916917f8015d0088b69f5185f393d6ae0a2575428d1c5951bd7c3330a97ff0b225fa9a3606060a063ffffffff8c169401a46001600160401b036040519163ffffffff8816835234602084015216604082015260ff8516907f925e3f75bf611056630c5b1a2b9a6c6e1ae62fd1543ac36e907bc92e86d6b503606060018060a01b038a1692a3838661231c565b91909363ffffffff60405191610cf2836113f4565b60018060a01b038816835260ff861660208401523460408401528660608401521660808201524360a082015281151560c08201528260e082015260018060a01b0386165f52600760205260405f2080546801000000000000000081101561105457610d6291600182018155611495565b919091611068578051825460208301516001600160a81b03199091166001600160a01b03929092169190911760a091821b60ff60a01b161783556040820151600184015560608201516002840155608082015160038401805463ffffffff191663ffffffff92909216919091179055810151600483015560c081015160058301805491151560ff1660ff199290921691909117905560e001518051906001600160401b03821161105457610e1960068401546114c2565b601f811161100c575b50602090601f8311600114610fa057600692915f9183610f95575b50508160011b915f199060031b1c1916179101555b6001600160a01b0385165f90815260086020526040902080546001810191908210610f81575515610eea5750606060ff7f699053488e91eabb3eaff54c6de4e585018eb5d7b4e5c31bbe7cfea8117749039260405194348652602086015260016040860152169360018060a01b031692a35b60017f9b779b17422d0df92223018b32b4d1fa46e071723d6817e2486d003becc55f0055005b604051602080825292935060ff8416926001600160a01b038616927ef83b977be951a19a64a40a5b046d43911cbd22637031a13db4e98c2a86ceb092918291610f359183019061137e565b0390a37f699053488e91eabb3eaff54c6de4e585018eb5d7b4e5c31bbe7cfea811774903606060ff604051933485525f60208601525f6040860152169360018060a01b031692a3610ec4565b634e487b7160e01b5f52601160045260245ffd5b015190508980610e3d565b90600684015f5260205f20915f5b601f1985168110610ff45750918391600193600695601f19811610610fdc575b505050811b01910155610e52565b01515f1960f88460031b161c19169055898080610fce565b91926020600181928685015181550194019201610fae565b600684015f5260205f20601f840160051c8101916020851061104a575b601f0160051c01905b81811061103f5750610e22565b5f8155600101611032565b9091508190611029565b634e487b7160e01b5f52604160045260245ffd5b634e487b7160e01b5f525f60045260245ffd5b60405162461bcd60e51b815260206004820152600d60248201526c696e76616c6964206e6f6e636560981b6044820152606490fd5b60405162461bcd60e51b815260206004820152600b60248201526a3d32b9379037b934b3b4b760a91b6044820152606490fd5b60405162461bcd60e51b81526020600482015260126024820152711a5b9d195b9d081d1e5c19481c185d5cd95960721b6044820152606490fd5b60405162461bcd60e51b815260206004820152601860248201527f70617261636861696e206e6f7420617574686f726973656400000000000000006044820152606490fd5b60405162461bcd60e51b815260206004820152600e60248201526d1cd95d1d1b195c881c185d5cd95960921b6044820152606490fd5b604051633ee5aeb560e01b8152600490fd5b34610192576020366003190112610192576001600160a01b036111cb6112e3565b165f526008602052602060405f2054604051908152f35b34610192576020366003190112610192576004358015158091036101925760207f752d7e161ff5146f80e3820893176eb40532811e5e20400dfdde57455213706a9161123860018060a01b035f541633146113bc565b60ff19600a541660ff821617600a55604051908152a1005b34610192576080366003190112610192576112696112cd565b5f546001600160a01b039061128190821633146113bc565b60405191604435835260643560208401526001600160401b034316604084015216907f233fd66c437188feb365fefcc5ba952b3ea159fad75c42272a1e49d1aab03c0d606060043592a3005b602435906001600160a01b038216820361019257565b600435906001600160a01b038216820361019257565b60243590811515820361019257565b6024359060ff8216820361019257565b6004359060ff8216820361019257565b9181601f84011215610192578235916001600160401b038311610192576020838186019501011161019257565b6004359063ffffffff8216820361019257565b608435906001600160401b038216820361019257565b91908251928382525f5b8481106113a8575050825f602080949584010152601f8019910116010190565b602081830181015184830182015201611388565b156113c357565b60405162461bcd60e51b81526020600482015260096024820152683737ba1037bbb732b960b91b6044820152606490fd5b61010081019081106001600160401b0382111761105457604052565b6001600160401b03811161105457604052565b602081019081106001600160401b0382111761105457604052565b604081019081106001600160401b0382111761105457604052565b606081019081106001600160401b0382111761105457604052565b90601f801991011681019081106001600160401b0382111761105457604052565b80548210156114ae575f52600760205f20910201905f90565b634e487b7160e01b5f52603260045260245ffd5b90600182811c921680156114f0575b60208310146114dc57565b634e487b7160e01b5f52602260045260245ffd5b91607f16916114d1565b91908201809211610f8157565b6001600160401b0381116110545760051b60200190565b91908203918211610f8157565b80518210156114ae5760209160051b010190565b909160018060a01b038092165f52602060078152604092835f20928354908187101561174a57611583916115748892836114fa565b90808211611742575b5061151e565b9261158d84611507565b9561159a86519788611474565b848752601f196115a986611507565b01845f5b8281106116fe575050505f5b8581106115ca575050505050505090565b6115dd6115d782846114fa565b84611495565b508751906115ea826113f4565b80548681168352600660ff928360a093841c168a860152600192838201548d8701526002820154606087015263ffffffff60038301541660808701526004820154908601526005938482015416151560c086015201908a51925f9280548b611651826114c2565b808852938286169283156116d85750505060011461169f575b5050509061167e8160019594930382611474565b60e082015261168d828b61152b565b52611698818a61152b565b50016115b9565b8a93505f52825f20915f925b8284106116c35750505082010161167e82600161166a565b80548685018601528b949093019281016116ab565b60ff19168289015293151590931b8601909201935061167e92508491506001905061166a565b8851611709816113f4565b5f81525f838201525f8a82015260605f818301525f60808301525f60a08301525f60c083015260e082015282828c0101520185906115ad565b90505f61157d565b505050505090505161175b81611423565b5f815290565b1561176857565b60405162461bcd60e51b81526020600482015260096024820152683d32b9379030b2323960b91b6044820152606490fd5b604051906117a68261143e565b6013825272756e6b6e6f776e20696e74656e74207479706560681b6020830152565b604051906117d582611459565b60298252681c9bddd05b5bdd5b9d60ba1b6040837f6461746120746f6f2073686f72743a206e6565642075696e7432353620626f7260208201520152565b604051906118208261143e565b601882527f626f72726f77416d6f756e74206d757374206265203e203000000000000000006020830152565b6001929060ff1683810361186a575050509060405161175b81611423565b600281036118b55750602081106118a857816020918101031261019257351561189a579060405161175b81611423565b505f906118a5611813565b90565b5050505f906118a56117c8565b600381036118cd575050509060405161175b81611423565b600481036119805750602081106119325781602091810103126101925735156118fd579060405161175b81611423565b505f9060405161190c8161143e565b601681527506c656e64416d6f756e74206d757374206265203e20360541b602082015290565b5050505f9060405161194381611459565b602781527f6461746120746f6f2073686f72743a206e6565642075696e74323536206c656e60208201526619105b5bdd5b9d60ca1b604082015290565b60058103611998575050509060405161175b81611423565b600681036119c85750602081106118a857816020918101031261019257351561189a579060405161175b81611423565b915050600781036119e157509060405161175b81611423565b6008036119f5579060405161175b81611423565b505f906118a5611799565b5190811515820361019257565b91908260c091031261019257815191602081015191604082015163ffffffff811681036101925791606081015191608082015160ff811681036101925760a06118a5919301611a00565b60405190611a648261143e565b600c82526b696e76616c6964206461746160a01b6020830152565b60405190611a8c8261143e565b601c82527f696e73756666696369656e74205553444320696e20736574746c6572000000006020830152565b600193929160ff16848103611b2d5750505050905f90604051611ada81611459565b603b81527f77696c6c206465706f736974206d73672e76616c75652061732050415320636f60208201527f6c6c61746572616c20696e204b726564696f5041534d61726b65740000000000604082015290565b9394929360028103611d19575050602092838110611d0857818491810103126101925735928315611cdc5780546040805163055f575160e41b81523060048201529094916001600160a01b03169060c081602481855afa908115611cd2575f905f92611c9c575b508115611c92575b50611c495781602491865192838092630286fca160e61b82523060048301525afa908115611c3f575f91611c12575b5015611bde575092915161175b81611423565b9350505f92731b9bc818dbdb1b185d195c985b081c1bdcdd195960621b5f935191611c088361143e565b6014835282015290565b90508181813d8311611c38575b611c298183611474565b8101031261019257515f611bcb565b503d611c1f565b85513d5f823e3d90fd5b509350505f926234b7b760e91b5f937f736574746c657220616c7265616479206861732061637469766520706f736974815193611c8585611459565b6023855284015282015290565b905015155f611b9c565b9050611cc0915060c03d60c011611ccb575b611cb88183611474565b810190611a0d565b94505050505f611b94565b503d611cae565b86513d5f823e3d90fd5b506040515f935083926a1e995c9bc8185b5bdd5b9d60aa1b90611cfe8361143e565b600b835282015290565b50509150505f905f906118a5611a57565b909492939160038203611e6357505081546040805163055f575160e41b81523060048201529495509391506001600160a01b039060c0908390602490829085165afa8015611df2575f925f91611e3a575b5015611dfc576020602491600454168551928380926370a0823160e01b82523060048301525afa908115611df2575f91611dc0575b5010611db257915f915161175b81611423565b50505f905f906118a5611a7f565b90506020813d602011611dea575b81611ddb60209383611474565b8101031261019257515f611d9f565b3d9150611dce565b84513d5f823e3d90fd5b5050505f915f9151611e0d8161143e565b601b81527f6e6f2061637469766520706f736974696f6e20746f2072657061790000000000602082015290565b9050611e5691925060c03d60c011611ccb57611cb88183611474565b959450505050915f611d6a565b600491808303611f5b5750602092838110611f4857818491810103126101925781546040516370a0823160e01b81526001600160a01b0397881693810193909352903595839183916024918391165afa80156103fa5785915f91611f17575b5010611ed75750919060405161175b81611423565b919250505f915f917f696e73756666696369656e7420555344432062616c616e63650000000000000060405191611f0d8361143e565b6019835282015290565b809250838092503d8311611f41575b611f308183611474565b81010312610192578490515f611ec2565b503d611f26565b505050505090505f905f906118a5611a57565b909291939550600581145f1461206457505050670de0b6b3a7640000919260018060a01b0360035416604051938493632ecd3aed60e11b855284015282602460209586935afa5f9281612035575b50611fe15750505f915f91716f7261636c6520756e617661696c61626c6560701b60405191611fd78361143e565b6012835282015290565b9290917f71756f7465206973206d55534443206f7574207065722031205041533b2073636040519161201283611459565b603083528201526f616c65206279206d73672e76616c756560801b604082015290565b9092508381813d831161205d575b61204d8183611474565b810103126101925751915f611fa9565b503d612043565b91929091600681036120e1575050602081106120d1578160209181010312610192573591821561209c57919060405161175b81611423565b5090505f905f906040516120af8161143e565b60128152711e995c9bc8189bdc9c9bddc8185b5bdd5b9d60721b602082015290565b505090505f905f906118a5611a57565b9093925090506007810361225c575060018060a01b0383541692604092835163055f575160e41b8152308282015260c081602481895afa908115611c3f575f905f92612236575b508161222c575b506121ed576020906024855180978193630286fca160e61b835230908301525afa9384156121e3575f946121af575b5083156121715792915161175b81611423565b5091505f915f91516121828161143e565b601981527f6e6f20636f6c6c61746572616c20746f20776974686472617700000000000000602082015290565b9093506020813d6020116121db575b816121cb60209383611474565b810103126101925751925f61215e565b3d91506121be565b83513d5f823e3d90fd5b505091505f915f91516121ff8161143e565b601881527f61637469766520646562743a2072657061792066697273740000000000000000602082015290565b905015155f61212f565b9050612251915060c03d60c011611ccb57611cb88183611474565b94505050505f612128565b6008919392501461227457505f905f906118a5611799565b905f9060405161228381611459565b602781527f77696c6c207265706179206465627420616e6420776974686472617720636f6c6020820152661b185d195c985b60ca1b604082015290565b3d156122f9573d906001600160401b03821161105457604051916122ee601f8201601f191660200184611474565b82523d5f602084013e565b606090565b90603481101561230e5750505f90565b603411610192576014013590565b91929060ff1690600182145f14612341575050505061233a346137cd565b9192909190565b8390600283036123625760209250810103126101925761233a9135906136af565b905060038203612378575050505061233a613478565b839160048103612399575060209250810103126101925761233a903561327e565b909150600581036123b1575050505061233a34612f8c565b600681036123d1575082602091810103126101925761233a9135906129fd565b91925050600781036123e7575061233a906127ce565b6008036123f75761233a9061246a565b50612400611799565b5f915f9190565b604051906124148261143e565b600e82526d185c1c1c9bdd994819985a5b195960921b6020830152565b6040519061243e8261143e565b601a82527f50415320666f727761726420746f2075736572206661696c65640000000000006020830152565b600180546040805163055f575160e41b8152306004808301919091525f96956001600160a01b0395939490929086169060c081602481855afa908115611cd2575f905f926127a8575b508161279e575b5061257c575b508647918685541690813b156125785782918291885180958193632ce0a9df60e11b83525af19182612560575b50506125045750505050506125006122c0565b8291565b906125148794969597924761151e565b96879182612533575b505050509392519061252e82611423565b815290565b839283928392165af16125446122c0565b50156125535781855f8061251d565b5092509050612500612431565b61256990611410565b61257457875f6124ed565b8780fd5b8280fd5b815485516370a0823160e01b81523081850152602092918816908381602481855afa908115612794575f91612767575b50801561272a57875163095ea7b360e01b8082526001600160a01b03909416868201908152602081019290925291849183919082905f90829060400103925af1908115612720575f916126eb575b50156126da575f90606088875416803b15610192575f8091878b518094819363402d888360e01b83525af190816126c7575b506126be575061263a6122c0565b925b808b60448b885416948c8b5416928c51968794859384528b8401528160248401525af180156126b45761267c575b50506124c05795945050505050829190565b81813d83116126ad575b6126908183611474565b810103126126a9576126a190611a00565b505f8061266a565b8980fd5b503d612686565b88513d8d823e3d90fd5b9286925061263c565b6126d2919c50611410565b5f9a5f61262c565b505050505050509050612400612407565b90508281813d8311612719575b6127028183611474565b810103126101925761271390611a00565b5f6125fa565b503d6126f8565b87513d5f823e3d90fd5b505050959650505050741b9bc81554d110c81d1bc81c995c185e481919589d605a1b915051916127598361143e565b601583528201525f915f9190565b90508381813d831161278d575b61277e8183611474565b8101031261019257515f6125ac565b503d612774565b88513d5f823e3d90fd5b905015155f6124ba565b90506127c3915060c03d60c011611ccb57611cb88183611474565b94505050505f6124b3565b6001546040805163055f575160e41b81523060048201525f94936001600160a01b039390919084169060c081602481855afa908115611df2575f905f9261291c575b5081612912575b506128bf574790803b15610192575f80916004865180948193632ce0a9df60e11b83525af190816128ac575b5061285457505050506125006122c0565b906128648693959496924761151e565b95869182612880575b5050505060019392519061252e82611423565b839283928392165af16128916122c0565b50156128a05780845f8061286d565b92509050612500612431565b6128b7919750611410565b5f955f612843565b505080519293506814105648199a5c9cdd60ba1b91506128de83611459565b602983527f61637469766520646562743a207573652046554c4c5f45584954206f7220524560208401528201525f915f9190565b905015155f612817565b9050612937915060c03d60c011611ccb57611cb88183611474565b94505050505f612810565b6040519061294f8261143e565b60088252677a65726f2050415360c01b6020830152565b604051906129738261143e565b600b82526a7a65726f20626f72726f7760a81b6020830152565b6040519061299a8261143e565b6012825271737761702072657475726e6564207a65726f60701b6020830152565b156129c257565b60405162461bcd60e51b8152602060048201526013602482015272189bdc9c9bddc8199bdc9dd85c990819985a5b606a1b6044820152606490fd5b905f913415612f81578115612f765760018060a01b0391826003541691604090815193632ecd3aed60e11b8552600491348387015260209460249686818981875afa5f9181612f47575b50612a5e57505050505050505050506124006122c0565b99979899606381029080820460631490151715612f3557898554169386519188838b816370a0823160e01b998a8252308c8301525afa928315612794575f93612f06575b50813b156101925760648a5f928a519485938492634a5c8c6f60e11b8452048b83015234905af19081612eef575b508b929190612aec5750505050505050505090506125006122c0565b8a865416908751868152308882015289818c81865afa908115612ee5578591612eb0575b5090612b1b9161151e565b908115612e9c57600254885163095ea7b360e01b808252918e166001600160a01b0316898201908152602081018590529197969594939290918b91839182908890829060400103925af1908115612e92578491612e5d575b5015612e49578b6002541690813b15612c1f578380918c8a838d51968794859363bad4a01f60e01b85528401525af19182612e35575b5050612c335750604492508694939150612bc16122c0565b99818186541691600254169988519a8b97889687528601528401525af1908115612c2a5750612bf2575b5050829190565b81813d8311612c23575b612c068183611474565b81010312612c1f57612c1790611a00565b505f80612beb565b8380fd5b503d612bfc565b513d87823e3d90fd5b88999a92945097929796959686838754168951958680928d8252308b8301525afa938415612e2b578294612df8575b50826002541690813b156125785782918b83928b51958693849263317afabb60e21b84528c8401525af19182612de0575b5050612ca95750505050505050506125006122c0565b8490849a96989a99979954169888519a8b9182523086830152818b5afa8015612dd65785969798998691612da1575b5090612ce39161151e565b97889182612d01575b50505050505060019392519061252e82611423565b885163a9059cbb60e01b81526001600160a01b039091169381019384526020840192909252909383928592918391829060400103925af1908115612d97578391612d5c575b50612d5191506129bb565b805f80868180612cec565b905081813d8311612d90575b612d728183611474565b81010312612d8c57612d86612d5191611a00565b5f612d46565b5080fd5b503d612d68565b85513d85823e3d90fd5b80929650858092503d8311612dcf575b612dbb8183611474565b810103126101925751859490612ce3612cd8565b503d612db1565b87513d87823e3d90fd5b612de990611410565b612df4578a5f612c93565b8a80fd5b87809295508193503d8311612e24575b612e128183611474565b81010312610192578a9051925f612c62565b503d612e08565b88513d84823e3d90fd5b612e3e90611410565b61257857825f612ba9565b505050505050505050509050612500612407565b90508981813d8311612e8b575b612e748183611474565b81010312612c1f57612e8590611a00565b5f612b73565b503d612e6a565b89513d86823e3d90fd5b50505050505050505050905061250061298d565b809295508a8092503d8311612ede575b612eca8183611474565b8101031261019257518c9390612b1b612b10565b503d612ec0565b89513d87823e3d90fd5b612efc9193929c50611410565b5f9a90915f612ad0565b9092508881813d8311612f2e575b612f1e8183611474565b810103126101925751915f612aa2565b503d612f14565b87601186634e487b7160e01b5f52525ffd5b9091508781813d8311612f6f575b612f5f8183611474565b810103126101925751905f612a47565b503d612f55565b505050612400612966565b505050612400612942565b5f9080156132745760035460408051632ecd3aed60e11b815260048082018590526001600160a01b039460249460209493908716919085818881865afa5f9181613245575b50612fe7575050505050505050506124006122c0565b989697989160638302928084046063149015171561323357888454169185519387858a816370a0823160e01b97888252308b8301525afa948515612720575f95613204575b50823b1561019257886064915f9389519586948593634a5c8c6f60e11b8552048a8401525af190816131f1575b5061306e5750505050505090506125006122c0565b87835416918451918252308483015285828881865afa80156131a8578a906131c2575b61309b925061151e565b80156131b2578760025416918585518092818d816130dc8863095ea7b360e01b9a8b84528c840160209093929193604081019460018060a01b031681520152565b03925af19081156131a8578a91613173575b501561316357888860025416803b15612d8c578180918988518095819363b6b55f2560e01b8352888b8401525af1918261314f575b50506131385750906044849289612bc16122c0565b979450505093505060019392519061252e82611423565b61315890611410565b6126a957895f613123565b5050505050509050612500612407565b90508581813d83116131a1575b61318a8183611474565b810103126126a95761319b90611a00565b5f6130ee565b503d613180565b85513d8c823e3d90fd5b505050505050905061250061298d565b508582813d83116131ea575b6131d88183611474565b810103126101925761309b9151613091565b503d6131ce565b6131fc919a50611410565b5f985f613059565b9094508781813d831161322c575b61321c8183611474565b810103126101925751935f61302c565b503d613212565b86601185634e487b7160e01b5f52525ffd5b9091508681813d831161326d575b61325d8183611474565b810103126101925751905f612fd1565b503d613253565b5050612400612942565b5f9181156134455760048054604080516370a0823160e01b815230818501526001600160a01b03928316959293602093909184816024818b5afa908115611df2579082915f91613414575b501061340457600254835163095ea7b360e01b8082529187166001600160a01b03168482019081526020810184905291989091869183918290819060400103915a905f91f1908115611df2575f916133cf575b50156133bf578460025416803b15610192575f8091602486518094819363b6b55f2560e01b835287898401525af190816133ac575b506133965750829060446133636122c0565b9789878454169760025416978651988995869485528401528160248401525af1908115612c2a5750612bf2575050829190565b9693505093505060019392519061252e82611423565b6133b7919950611410565b5f975f613351565b5050505050915050612400612407565b90508481813d83116133fd575b6133e68183611474565b81010312610192576133f790611a00565b5f61331c565b503d6133dc565b5050505050915050612400611a7f565b809250868092503d831161343e575b61342d8183611474565b81010312610192578190515f6132c9565b503d613423565b9150506040516134548161143e565b601081526f1e995c9bc81b195b9908185b5bdd5b9d60821b60208201525f915f9190565b60048054604080516370a0823160e01b815230818501525f949093909290916001600160a01b03916020919083168287602481845afa968715613633575f97613680575b50861561363d57826135005f92866001541699855194858094819363095ea7b360e01b9e8f84528d840160209093929193604081019460018060a01b031681520152565b03925af1908115613633575f916135fe575b50156135ef575f9360608460015416803b15610192575f80918486518094819363402d888360e01b83525af190816135dc575b506135cd5750829060446135576122c0565b985b8a878454169760015416978651988995869485528401528160248401525af19081156135c4575061358c575b5050929190565b81813d83116135bd575b6135a08183611474565b810103126135b9576135b190611a00565b505f80613585565b8480fd5b503d613596565b513d88823e3d90fd5b96945082906044600196613559565b6135e7919a50611410565b5f985f613545565b50505050915050612400612407565b90508281813d831161362c575b6136158183611474565b810103126101925761362690611a00565b5f613512565b503d61360b565b82513d5f823e3d90fd5b5092509350507f6e6f205553444320696e20736574746c657220666f722072657061790000000091935051916136728361143e565b601c83528201525f915f9190565b9096508281813d83116136a8575b6136988183611474565b810103126101925751955f6134bc565b503d61368e565b91905f9281156137c15760048054604080516370a0823160e01b808252308286015295909491936020939092916001600160a01b039185908890602490829086165afa968715611cd2575f97613792575b50816001541690813b15610192575f91602483928951948593849263317afabb60e21b84528a8401525af1908161377f575b5061374657505050505050506125006122c0565b8298949698979597541696865198895230838a015283896024818b5afa8015612dd65785969798998691612da1575090612ce39161151e565b61378a919a50611410565b5f985f613732565b9096508481813d83116137ba575b6137aa8183611474565b810103126101925751955f613700565b503d6137a0565b50509050612400612966565b905f91801561383b576001546001600160a01b0316803b15610192575f82916004604051809481936301bdd60560e61b83525af19081613828575b5061381657506125006122c0565b60405160019391929161252e82611423565b613833919450611410565b5f925f613808565b50905060405161384a8161143e565b600e81526d7a65726f205041532076616c756560901b60208201525f915f919056fea264697066735822122009fc83d551ce3caac1c82ac5c793be2c5ece6fb607fed8414b37f60b26863c2a64736f6c63430008180033","linkReferences":{}},"methodIdentifiers":{"BORROW()":"8500aca9","DEPOSIT_COLLATERAL()":"f3164e23","DEPOSIT_LEND()":"5629fb0c","FULL_EXIT()":"96dc33f3","REPAY()":"721672b2","SWAP_AND_BORROW_COLLATERAL()":"309bb825","SWAP_AND_LEND()":"63ac4482","WITHDRAW_COLLATERAL()":"476554a2","acknowledgeExecution(bytes32,bool,bytes4)":"80f7c3c2","authorisedParachains(uint32)":"4241bb66","decodeAndValidate(uint8,bytes)":"714ea133","estimateIntent(address,uint8,bytes)":"80d81b73","getSettlementHistory(address,uint256,uint256)":"481045d7","intentNonce(address)":"634a2320","intentPaused(uint8)":"2f62fe34","kredioLending()":"8ce4c0e9","kredioPASMarket()":"76d1e9bf","kredioSwap()":"78f0cc14","mockUSDC()":"ee467678","owner()":"8da5cb5b","pauseIntent(uint8,bool)":"8fca59bc","paused()":"5c975abb","recordEthBridgeInitiated(bytes32,address,uint256,bytes32)":"15999a4a","recordMessageDispatched(bytes32,uint8,uint32,bytes32,uint64)":"b85a0b79","recoverStuckPAS()":"ce5205aa","recoverStuckTokens(address,uint256)":"c596f3fe","setAuthorisedParachain(uint32,bool)":"d08266af","setPaused(bool)":"16c38b3c","settleIntent(address,uint8,bytes,uint32,uint64)":"22d4a99f","settlementCount(address)":"1971daa7","updateProtocolAddresses(address,address,address,address)":"49d83809"},"id":7}